{
  "_format": "hh-sol-artifact-1",
  "contractName": "MarketPlace",
  "sourceName": "contracts/Market.sol",
  "abi": [
    {
      "inputs": [],
      "stateMutability": "nonpayable",
      "type": "constructor"
    },
    {
      "anonymous": false,
      "inputs": [
        {
          "indexed": true,
          "internalType": "address",
          "name": "owner",
          "type": "address"
        },
        {
          "indexed": true,
          "internalType": "address",
          "name": "approved",
          "type": "address"
        },
        {
          "indexed": true,
          "internalType": "uint256",
          "name": "tokenId",
          "type": "uint256"
        }
      ],
      "name": "Approval",
      "type": "event"
    },
    {
      "anonymous": false,
      "inputs": [
        {
          "indexed": true,
          "internalType": "address",
          "name": "owner",
          "type": "address"
        },
        {
          "indexed": true,
          "internalType": "address",
          "name": "operator",
          "type": "address"
        },
        {
          "indexed": false,
          "internalType": "bool",
          "name": "approved",
          "type": "bool"
        }
      ],
      "name": "ApprovalForAll",
      "type": "event"
    },
    {
      "anonymous": false,
      "inputs": [
        {
          "indexed": true,
          "internalType": "uint256",
          "name": "itemId",
          "type": "uint256"
        },
        {
          "indexed": false,
          "internalType": "string",
          "name": "tokenURI",
          "type": "string"
        },
        {
          "indexed": false,
          "internalType": "address",
          "name": "owner",
          "type": "address"
        },
        {
          "indexed": true,
          "internalType": "address",
          "name": "seller",
          "type": "address"
        },
        {
          "indexed": false,
          "internalType": "uint256",
          "name": "price",
          "type": "uint256"
        }
      ],
      "name": "MarketItemCreated",
      "type": "event"
    },
    {
      "anonymous": false,
      "inputs": [
        {
          "indexed": true,
          "internalType": "address",
          "name": "from",
          "type": "address"
        },
        {
          "indexed": true,
          "internalType": "address",
          "name": "to",
          "type": "address"
        },
        {
          "indexed": true,
          "internalType": "uint256",
          "name": "tokenId",
          "type": "uint256"
        }
      ],
      "name": "Transfer",
      "type": "event"
    },
    {
      "inputs": [
        {
          "internalType": "address",
          "name": "to",
          "type": "address"
        },
        {
          "internalType": "uint256",
          "name": "tokenId",
          "type": "uint256"
        }
      ],
      "name": "approve",
      "outputs": [],
      "stateMutability": "nonpayable",
      "type": "function"
    },
    {
      "inputs": [
        {
          "internalType": "address",
          "name": "owner",
          "type": "address"
        }
      ],
      "name": "balanceOf",
      "outputs": [
        {
          "internalType": "uint256",
          "name": "",
          "type": "uint256"
        }
      ],
      "stateMutability": "view",
      "type": "function"
    },
    {
      "inputs": [
        {
          "internalType": "uint256",
          "name": "_itemId",
          "type": "uint256"
        }
      ],
      "name": "buyMarketItem",
      "outputs": [],
      "stateMutability": "payable",
      "type": "function"
    },
    {
      "inputs": [
        {
          "internalType": "string",
          "name": "_tokenURI",
          "type": "string"
        },
        {
          "internalType": "uint256",
          "name": "price",
          "type": "uint256"
        }
      ],
      "name": "createToken",
      "outputs": [],
      "stateMutability": "nonpayable",
      "type": "function"
    },
    {
      "inputs": [
        {
          "internalType": "uint256",
          "name": "tokenId",
          "type": "uint256"
        }
      ],
      "name": "getApproved",
      "outputs": [
        {
          "internalType": "address",
          "name": "",
          "type": "address"
        }
      ],
      "stateMutability": "view",
      "type": "function"
    },
    {
      "inputs": [
        {
          "internalType": "uint256",
          "name": "",
          "type": "uint256"
        }
      ],
      "name": "idToMarketItem",
      "outputs": [
        {
          "internalType": "uint256",
          "name": "itemId",
          "type": "uint256"
        },
        {
          "internalType": "string",
          "name": "tokenURI",
          "type": "string"
        },
        {
          "internalType": "address payable",
          "name": "owner",
          "type": "address"
        },
        {
          "internalType": "address payable",
          "name": "seller",
          "type": "address"
        },
        {
          "internalType": "uint256",
          "name": "price",
          "type": "uint256"
        },
        {
          "internalType": "bool",
          "name": "sold",
          "type": "bool"
        }
      ],
      "stateMutability": "view",
      "type": "function"
    },
    {
      "inputs": [
        {
          "internalType": "address",
          "name": "owner",
          "type": "address"
        },
        {
          "internalType": "address",
          "name": "operator",
          "type": "address"
        }
      ],
      "name": "isApprovedForAll",
      "outputs": [
        {
          "internalType": "bool",
          "name": "",
          "type": "bool"
        }
      ],
      "stateMutability": "view",
      "type": "function"
    },
    {
      "inputs": [],
      "name": "listingPrice",
      "outputs": [
        {
          "internalType": "uint256",
          "name": "",
          "type": "uint256"
        }
      ],
      "stateMutability": "view",
      "type": "function"
    },
    {
      "inputs": [],
      "name": "name",
      "outputs": [
        {
          "internalType": "string",
          "name": "",
          "type": "string"
        }
      ],
      "stateMutability": "view",
      "type": "function"
    },
    {
      "inputs": [],
      "name": "owner",
      "outputs": [
        {
          "internalType": "address payable",
          "name": "",
          "type": "address"
        }
      ],
      "stateMutability": "view",
      "type": "function"
    },
    {
      "inputs": [
        {
          "internalType": "uint256",
          "name": "tokenId",
          "type": "uint256"
        }
      ],
      "name": "ownerOf",
      "outputs": [
        {
          "internalType": "address",
          "name": "",
          "type": "address"
        }
      ],
      "stateMutability": "view",
      "type": "function"
    },
    {
      "inputs": [
        {
          "internalType": "uint256",
          "name": "_itemId",
          "type": "uint256"
        },
        {
          "internalType": "uint256",
          "name": "price",
          "type": "uint256"
        }
      ],
      "name": "resellMarketItem",
      "outputs": [],
      "stateMutability": "payable",
      "type": "function"
    },
    {
      "inputs": [
        {
          "internalType": "address",
          "name": "from",
          "type": "address"
        },
        {
          "internalType": "address",
          "name": "to",
          "type": "address"
        },
        {
          "internalType": "uint256",
          "name": "tokenId",
          "type": "uint256"
        }
      ],
      "name": "safeTransferFrom",
      "outputs": [],
      "stateMutability": "nonpayable",
      "type": "function"
    },
    {
      "inputs": [
        {
          "internalType": "address",
          "name": "from",
          "type": "address"
        },
        {
          "internalType": "address",
          "name": "to",
          "type": "address"
        },
        {
          "internalType": "uint256",
          "name": "tokenId",
          "type": "uint256"
        },
        {
          "internalType": "bytes",
          "name": "_data",
          "type": "bytes"
        }
      ],
      "name": "safeTransferFrom",
      "outputs": [],
      "stateMutability": "nonpayable",
      "type": "function"
    },
    {
      "inputs": [
        {
          "internalType": "address",
          "name": "operator",
          "type": "address"
        },
        {
          "internalType": "bool",
          "name": "approved",
          "type": "bool"
        }
      ],
      "name": "setApprovalForAll",
      "outputs": [],
      "stateMutability": "nonpayable",
      "type": "function"
    },
    {
      "inputs": [
        {
          "internalType": "bytes4",
          "name": "interfaceId",
          "type": "bytes4"
        }
      ],
      "name": "supportsInterface",
      "outputs": [
        {
          "internalType": "bool",
          "name": "",
          "type": "bool"
        }
      ],
      "stateMutability": "view",
      "type": "function"
    },
    {
      "inputs": [],
      "name": "symbol",
      "outputs": [
        {
          "internalType": "string",
          "name": "",
          "type": "string"
        }
      ],
      "stateMutability": "view",
      "type": "function"
    },
    {
      "inputs": [
        {
          "internalType": "uint256",
          "name": "tokenId",
          "type": "uint256"
        }
      ],
      "name": "tokenURI",
      "outputs": [
        {
          "internalType": "string",
          "name": "",
          "type": "string"
        }
      ],
      "stateMutability": "view",
      "type": "function"
    },
    {
      "inputs": [
        {
          "internalType": "address",
          "name": "from",
          "type": "address"
        },
        {
          "internalType": "address",
          "name": "to",
          "type": "address"
        },
        {
          "internalType": "uint256",
          "name": "tokenId",
          "type": "uint256"
        }
      ],
      "name": "transferFrom",
      "outputs": [],
      "stateMutability": "nonpayable",
      "type": "function"
    }
  ],
  "bytecode": "0x608060405266470de4df8200006009553480156200001c57600080fd5b506040518060400160405280600781526020017f4d6574614e4654000000000000000000000000000000000000000000000000008152506040518060400160405280600381526020017f4d465400000000000000000000000000000000000000000000000000000000008152508160009080519060200190620000a192919062000104565b508060019080519060200190620000ba92919062000104565b50505033600860006101000a81548173ffffffffffffffffffffffffffffffffffffffff021916908373ffffffffffffffffffffffffffffffffffffffff16021790555062000219565b8280546200011290620001b4565b90600052602060002090601f01602090048101928262000136576000855562000182565b82601f106200015157805160ff191683800117855562000182565b8280016001018555821562000182579182015b828111156200018157825182559160200191906001019062000164565b5b50905062000191919062000195565b5090565b5b80821115620001b057600081600090555060010162000196565b5090565b60006002820490506001821680620001cd57607f821691505b60208210811415620001e457620001e3620001ea565b5b50919050565b7f4e487b7100000000000000000000000000000000000000000000000000000000600052602260045260246000fd5b6139c380620002296000396000f3fe6080604052600436106101145760003560e01c806370a08231116100a0578063b88d4fde11610064578063b88d4fde14610393578063c78f19f9146103bc578063c87b56dd146103e7578063e61a70c014610424578063e985e9c51461046657610114565b806370a08231146102ae57806372b3b620146102eb5780638da5cb5b1461031457806395d89b411461033f578063a22cb4651461036a57610114565b806323b872dd116100e757806323b872dd146101e7578063351901c31461021057806342842e0e1461022c5780636352211e146102555780636b52d8321461029257610114565b806301ffc9a71461011957806306fdde0314610156578063081812fc14610181578063095ea7b3146101be575b600080fd5b34801561012557600080fd5b50610140600480360381019061013b9190612650565b6104a3565b60405161014d9190612be2565b60405180910390f35b34801561016257600080fd5b5061016b610585565b6040516101789190612bfd565b60405180910390f35b34801561018d57600080fd5b506101a860048036038101906101a391906126f6565b610617565b6040516101b59190612b60565b60405180910390f35b3480156101ca57600080fd5b506101e560048036038101906101e09190612614565b61069c565b005b3480156101f357600080fd5b5061020e6004803603810190610209919061250e565b6107b4565b005b61022a600480360381019061022591906126f6565b610814565b005b34801561023857600080fd5b50610253600480360381019061024e919061250e565b610b06565b005b34801561026157600080fd5b5061027c600480360381019061027791906126f6565b610b26565b6040516102899190612b60565b60405180910390f35b6102ac60048036038101906102a7919061271f565b610bd8565b005b3480156102ba57600080fd5b506102d560048036038101906102d091906124a9565b610e9a565b6040516102e29190612f1d565b60405180910390f35b3480156102f757600080fd5b50610312600480360381019061030d91906126a2565b610f52565b005b34801561032057600080fd5b50610329610f8d565b6040516103369190612b7b565b60405180910390f35b34801561034b57600080fd5b50610354610fb3565b6040516103619190612bfd565b60405180910390f35b34801561037657600080fd5b50610391600480360381019061038c91906125d8565b611045565b005b34801561039f57600080fd5b506103ba60048036038101906103b5919061255d565b61105b565b005b3480156103c857600080fd5b506103d16110bd565b6040516103de9190612f1d565b60405180910390f35b3480156103f357600080fd5b5061040e600480360381019061040991906126f6565b6110c3565b60405161041b9190612bfd565b60405180910390f35b34801561043057600080fd5b5061044b600480360381019061044691906126f6565b611215565b60405161045d96959493929190612f38565b60405180910390f35b34801561047257600080fd5b5061048d600480360381019061048891906124d2565b611326565b60405161049a9190612be2565b60405180910390f35b60007f80ac58cd000000000000000000000000000000000000000000000000000000007bffffffffffffffffffffffffffffffffffffffffffffffffffffffff1916827bffffffffffffffffffffffffffffffffffffffffffffffffffffffff1916148061056e57507f5b5e139f000000000000000000000000000000000000000000000000000000007bffffffffffffffffffffffffffffffffffffffffffffffffffffffff1916827bffffffffffffffffffffffffffffffffffffffffffffffffffffffff1916145b8061057e575061057d826113ba565b5b9050919050565b606060008054610594906131ed565b80601f01602080910402602001604051908101604052809291908181526020018280546105c0906131ed565b801561060d5780601f106105e25761010080835404028352916020019161060d565b820191906000526020600020905b8154815290600101906020018083116105f057829003601f168201915b5050505050905090565b600061062282611424565b610661576040517f08c379a000000000000000000000000000000000000000000000000000000000815260040161065890612e1d565b60405180910390fd5b6004600083815260200190815260200160002060009054906101000a900473ffffffffffffffffffffffffffffffffffffffff169050919050565b60006106a782610b26565b90508073ffffffffffffffffffffffffffffffffffffffff168373ffffffffffffffffffffffffffffffffffffffff161415610718576040517f08c379a000000000000000000000000000000000000000000000000000000000815260040161070f90612e7d565b60405180910390fd5b8073ffffffffffffffffffffffffffffffffffffffff16610737611490565b73ffffffffffffffffffffffffffffffffffffffff161480610766575061076581610760611490565b611326565b5b6107a5576040517f08c379a000000000000000000000000000000000000000000000000000000000815260040161079c90612d3d565b60405180910390fd5b6107af8383611498565b505050565b6107c56107bf611490565b82611551565b610804576040517f08c379a00000000000000000000000000000000000000000000000000000000081526004016107fb90612e9d565b60405180910390fd5b61080f83838361162f565b505050565b6000600a60008381526020019081526020016000209050600954816004015461083d919061306a565b341461087e576040517f08c379a000000000000000000000000000000000000000000000000000000000815260040161087590612edd565b60405180910390fd5b3373ffffffffffffffffffffffffffffffffffffffff168160030160009054906101000a900473ffffffffffffffffffffffffffffffffffffffff1673ffffffffffffffffffffffffffffffffffffffff161415610911576040517f08c379a000000000000000000000000000000000000000000000000000000000815260040161090890612dbd565b60405180910390fd5b8060050160009054906101000a900460ff1615610963576040517f08c379a000000000000000000000000000000000000000000000000000000000815260040161095a90612efd565b60405180910390fd5b8060030160009054906101000a900473ffffffffffffffffffffffffffffffffffffffff1673ffffffffffffffffffffffffffffffffffffffff166108fc600954346109af91906130f1565b9081150290604051600060405180830381858888f193505050501580156109da573d6000803e3d6000fd5b50600860009054906101000a900473ffffffffffffffffffffffffffffffffffffffff1673ffffffffffffffffffffffffffffffffffffffff166108fc826004015434610a2791906130f1565b9081150290604051600060405180830381858888f19350505050158015610a52573d6000803e3d6000fd5b50338160020160006101000a81548173ffffffffffffffffffffffffffffffffffffffff021916908373ffffffffffffffffffffffffffffffffffffffff16021790555060008160030160006101000a81548173ffffffffffffffffffffffffffffffffffffffff021916908373ffffffffffffffffffffffffffffffffffffffff16021790555060018160050160006101000a81548160ff021916908315150217905550610b0230338461162f565b5050565b610b218383836040518060200160405280600081525061105b565b505050565b6000806002600084815260200190815260200160002060009054906101000a900473ffffffffffffffffffffffffffffffffffffffff169050600073ffffffffffffffffffffffffffffffffffffffff168173ffffffffffffffffffffffffffffffffffffffff161415610bcf576040517f08c379a0000000000000000000000000000000000000000000000000000000008152600401610bc690612d7d565b60405180910390fd5b80915050919050565b6000600a600084815260200190815260200160002090506009543414610c33576040517f08c379a0000000000000000000000000000000000000000000000000000000008152600401610c2a90612c7d565b60405180910390fd5b3373ffffffffffffffffffffffffffffffffffffffff168160020160009054906101000a900473ffffffffffffffffffffffffffffffffffffffff1673ffffffffffffffffffffffffffffffffffffffff1614610cc5576040517f08c379a0000000000000000000000000000000000000000000000000000000008152600401610cbc90612e5d565b60405180910390fd5b3073ffffffffffffffffffffffffffffffffffffffff168160020160009054906101000a900473ffffffffffffffffffffffffffffffffffffffff1673ffffffffffffffffffffffffffffffffffffffff161415610d2257600080fd5b8060050160009054906101000a900460ff16610d73576040517f08c379a0000000000000000000000000000000000000000000000000000000008152600401610d6a90612ebd565b60405180910390fd5b8060030160009054906101000a900473ffffffffffffffffffffffffffffffffffffffff1673ffffffffffffffffffffffffffffffffffffffff166108fc349081150290604051600060405180830381858888f19350505050158015610ddd573d6000803e3d6000fd5b50308160020160006101000a81548173ffffffffffffffffffffffffffffffffffffffff021916908373ffffffffffffffffffffffffffffffffffffffff160217905550338160030160006101000a81548173ffffffffffffffffffffffffffffffffffffffff021916908373ffffffffffffffffffffffffffffffffffffffff16021790555060008160050160006101000a81548160ff021916908315150217905550818160040181905550610e9533308561162f565b505050565b60008073ffffffffffffffffffffffffffffffffffffffff168273ffffffffffffffffffffffffffffffffffffffff161415610f0b576040517f08c379a0000000000000000000000000000000000000000000000000000000008152600401610f0290612d5d565b60405180910390fd5b600360008373ffffffffffffffffffffffffffffffffffffffff1673ffffffffffffffffffffffffffffffffffffffff168152602001908152602001600020549050919050565b610f5c6007611896565b6000610f6860076118ac565b9050610f7433826118ba565b610f7e8184611a94565b610f888383611b08565b505050565b600860009054906101000a900473ffffffffffffffffffffffffffffffffffffffff1681565b606060018054610fc2906131ed565b80601f0160208091040260200160405190810160405280929190818152602001828054610fee906131ed565b801561103b5780601f106110105761010080835404028352916020019161103b565b820191906000526020600020905b81548152906001019060200180831161101e57829003601f168201915b5050505050905090565b611057611050611490565b8383611cd5565b5050565b61106c611066611490565b83611551565b6110ab576040517f08c379a00000000000000000000000000000000000000000000000000000000081526004016110a290612e9d565b60405180910390fd5b6110b784848484611e42565b50505050565b60095481565b60606110ce82611424565b61110d576040517f08c379a000000000000000000000000000000000000000000000000000000000815260040161110490612dfd565b60405180910390fd5b600060066000848152602001908152602001600020805461112d906131ed565b80601f0160208091040260200160405190810160405280929190818152602001828054611159906131ed565b80156111a65780601f1061117b576101008083540402835291602001916111a6565b820191906000526020600020905b81548152906001019060200180831161118957829003601f168201915b5050505050905060006111b7611e9e565b90506000815114156111cd578192505050611210565b6000825111156112025780826040516020016111ea929190612b3c565b60405160208183030381529060405292505050611210565b61120b84611eb5565b925050505b919050565b600a60205280600052604060002060009150905080600001549080600101805461123e906131ed565b80601f016020809104026020016040519081016040528092919081815260200182805461126a906131ed565b80156112b75780601f1061128c576101008083540402835291602001916112b7565b820191906000526020600020905b81548152906001019060200180831161129a57829003601f168201915b5050505050908060020160009054906101000a900473ffffffffffffffffffffffffffffffffffffffff16908060030160009054906101000a900473ffffffffffffffffffffffffffffffffffffffff16908060040154908060050160009054906101000a900460ff16905086565b6000600560008473ffffffffffffffffffffffffffffffffffffffff1673ffffffffffffffffffffffffffffffffffffffff16815260200190815260200160002060008373ffffffffffffffffffffffffffffffffffffffff1673ffffffffffffffffffffffffffffffffffffffff16815260200190815260200160002060009054906101000a900460ff16905092915050565b60007f01ffc9a7000000000000000000000000000000000000000000000000000000007bffffffffffffffffffffffffffffffffffffffffffffffffffffffff1916827bffffffffffffffffffffffffffffffffffffffffffffffffffffffff1916149050919050565b60008073ffffffffffffffffffffffffffffffffffffffff166002600084815260200190815260200160002060009054906101000a900473ffffffffffffffffffffffffffffffffffffffff1673ffffffffffffffffffffffffffffffffffffffff1614159050919050565b600033905090565b816004600083815260200190815260200160002060006101000a81548173ffffffffffffffffffffffffffffffffffffffff021916908373ffffffffffffffffffffffffffffffffffffffff160217905550808273ffffffffffffffffffffffffffffffffffffffff1661150b83610b26565b73ffffffffffffffffffffffffffffffffffffffff167f8c5be1e5ebec7d5bd14f71427d1e84f3dd0314c0f7b2291e5b200ac8c7c3b92560405160405180910390a45050565b600061155c82611424565b61159b576040517f08c379a000000000000000000000000000000000000000000000000000000000815260040161159290612d1d565b60405180910390fd5b60006115a683610b26565b90508073ffffffffffffffffffffffffffffffffffffffff168473ffffffffffffffffffffffffffffffffffffffff16148061161557508373ffffffffffffffffffffffffffffffffffffffff166115fd84610617565b73ffffffffffffffffffffffffffffffffffffffff16145b8061162657506116258185611326565b5b91505092915050565b8273ffffffffffffffffffffffffffffffffffffffff1661164f82610b26565b73ffffffffffffffffffffffffffffffffffffffff16146116a5576040517f08c379a000000000000000000000000000000000000000000000000000000000815260040161169c90612c9d565b60405180910390fd5b600073ffffffffffffffffffffffffffffffffffffffff168273ffffffffffffffffffffffffffffffffffffffff161415611715576040517f08c379a000000000000000000000000000000000000000000000000000000000815260040161170c90612cdd565b60405180910390fd5b611720838383611f5c565b61172b600082611498565b6001600360008573ffffffffffffffffffffffffffffffffffffffff1673ffffffffffffffffffffffffffffffffffffffff168152602001908152602001600020600082825461177b91906130f1565b925050819055506001600360008473ffffffffffffffffffffffffffffffffffffffff1673ffffffffffffffffffffffffffffffffffffffff16815260200190815260200160002060008282546117d2919061306a565b92505081905550816002600083815260200190815260200160002060006101000a81548173ffffffffffffffffffffffffffffffffffffffff021916908373ffffffffffffffffffffffffffffffffffffffff160217905550808273ffffffffffffffffffffffffffffffffffffffff168473ffffffffffffffffffffffffffffffffffffffff167fddf252ad1be2c89b69c2b068fc378daa952ba7f163c4a11628f55a4df523b3ef60405160405180910390a4611891838383611f61565b505050565b6001816000016000828254019250508190555050565b600081600001549050919050565b600073ffffffffffffffffffffffffffffffffffffffff168273ffffffffffffffffffffffffffffffffffffffff16141561192a576040517f08c379a000000000000000000000000000000000000000000000000000000000815260040161192190612ddd565b60405180910390fd5b61193381611424565b15611973576040517f08c379a000000000000000000000000000000000000000000000000000000000815260040161196a90612cbd565b60405180910390fd5b61197f60008383611f5c565b6001600360008473ffffffffffffffffffffffffffffffffffffffff1673ffffffffffffffffffffffffffffffffffffffff16815260200190815260200160002060008282546119cf919061306a565b92505081905550816002600083815260200190815260200160002060006101000a81548173ffffffffffffffffffffffffffffffffffffffff021916908373ffffffffffffffffffffffffffffffffffffffff160217905550808273ffffffffffffffffffffffffffffffffffffffff16600073ffffffffffffffffffffffffffffffffffffffff167fddf252ad1be2c89b69c2b068fc378daa952ba7f163c4a11628f55a4df523b3ef60405160405180910390a4611a9060008383611f61565b5050565b611a9d82611424565b611adc576040517f08c379a0000000000000000000000000000000000000000000000000000000008152600401611ad390612d9d565b60405180910390fd5b80600660008481526020019081526020016000209080519060200190611b039291906122cd565b505050565b6000611b1460076118ac565b90506040518060c001604052808281526020018481526020013073ffffffffffffffffffffffffffffffffffffffff1681526020013373ffffffffffffffffffffffffffffffffffffffff16815260200183815260200160001515815250600a6000838152602001908152602001600020600082015181600001556020820151816001019080519060200190611bab9291906122cd565b5060408201518160020160006101000a81548173ffffffffffffffffffffffffffffffffffffffff021916908373ffffffffffffffffffffffffffffffffffffffff16021790555060608201518160030160006101000a81548173ffffffffffffffffffffffffffffffffffffffff021916908373ffffffffffffffffffffffffffffffffffffffff1602179055506080820151816004015560a08201518160050160006101000a81548160ff021916908315150217905550905050611c72306001611045565b611c7d3330836107b4565b3373ffffffffffffffffffffffffffffffffffffffff16817f8a874d278ef657dae7538aa2aa10e3257e15a7539193206ec140648cb1975334853086604051611cc893929190612c1f565b60405180910390a3505050565b8173ffffffffffffffffffffffffffffffffffffffff168373ffffffffffffffffffffffffffffffffffffffff161415611d44576040517f08c379a0000000000000000000000000000000000000000000000000000000008152600401611d3b90612cfd565b60405180910390fd5b80600560008573ffffffffffffffffffffffffffffffffffffffff1673ffffffffffffffffffffffffffffffffffffffff16815260200190815260200160002060008473ffffffffffffffffffffffffffffffffffffffff1673ffffffffffffffffffffffffffffffffffffffff16815260200190815260200160002060006101000a81548160ff0219169083151502179055508173ffffffffffffffffffffffffffffffffffffffff168373ffffffffffffffffffffffffffffffffffffffff167f17307eab39ab6107e8899845ad3d59bd9653f200f220920489ca2b5937696c3183604051611e359190612be2565b60405180910390a3505050565b611e4d84848461162f565b611e5984848484611f66565b611e98576040517f08c379a0000000000000000000000000000000000000000000000000000000008152600401611e8f90612c5d565b60405180910390fd5b50505050565b606060405180602001604052806000815250905090565b6060611ec082611424565b611eff576040517f08c379a0000000000000000000000000000000000000000000000000000000008152600401611ef690612e3d565b60405180910390fd5b6000611f09611e9e565b90506000815111611f295760405180602001604052806000815250611f54565b80611f33846120fd565b604051602001611f44929190612b3c565b6040516020818303038152906040525b915050919050565b505050565b505050565b6000611f878473ffffffffffffffffffffffffffffffffffffffff166122aa565b156120f0578373ffffffffffffffffffffffffffffffffffffffff1663150b7a02611fb0611490565b8786866040518563ffffffff1660e01b8152600401611fd29493929190612b96565b602060405180830381600087803b158015611fec57600080fd5b505af192505050801561201d57506040513d601f19601f8201168201806040525081019061201a9190612679565b60015b6120a0573d806000811461204d576040519150601f19603f3d011682016040523d82523d6000602084013e612052565b606091505b50600081511415612098576040517f08c379a000000000000000000000000000000000000000000000000000000000815260040161208f90612c5d565b60405180910390fd5b805181602001fd5b63150b7a0260e01b7bffffffffffffffffffffffffffffffffffffffffffffffffffffffff1916817bffffffffffffffffffffffffffffffffffffffffffffffffffffffff1916149150506120f5565b600190505b949350505050565b60606000821415612145576040518060400160405280600181526020017f300000000000000000000000000000000000000000000000000000000000000081525090506122a5565b600082905060005b6000821461217757808061216090613250565b915050600a8261217091906130c0565b915061214d565b60008167ffffffffffffffff8111156121b9577f4e487b7100000000000000000000000000000000000000000000000000000000600052604160045260246000fd5b6040519080825280601f01601f1916602001820160405280156121eb5781602001600182028036833780820191505090505b5090505b6000851461229e5760018261220491906130f1565b9150600a856122139190613299565b603061221f919061306a565b60f81b81838151811061225b577f4e487b7100000000000000000000000000000000000000000000000000000000600052603260045260246000fd5b60200101907effffffffffffffffffffffffffffffffffffffffffffffffffffffffffffff1916908160001a905350600a8561229791906130c0565b94506121ef565b8093505050505b919050565b6000808273ffffffffffffffffffffffffffffffffffffffff163b119050919050565b8280546122d9906131ed565b90600052602060002090601f0160209004810192826122fb5760008555612342565b82601f1061231457805160ff1916838001178555612342565b82800160010185558215612342579182015b82811115612341578251825591602001919060010190612326565b5b50905061234f9190612353565b5090565b5b8082111561236c576000816000905550600101612354565b5090565b600061238361237e84612fc5565b612fa0565b90508281526020810184848401111561239b57600080fd5b6123a68482856131ab565b509392505050565b60006123c16123bc84612ff6565b612fa0565b9050828152602081018484840111156123d957600080fd5b6123e48482856131ab565b509392505050565b6000813590506123fb81613931565b92915050565b60008135905061241081613948565b92915050565b6000813590506124258161395f565b92915050565b60008151905061243a8161395f565b92915050565b600082601f83011261245157600080fd5b8135612461848260208601612370565b91505092915050565b600082601f83011261247b57600080fd5b813561248b8482602086016123ae565b91505092915050565b6000813590506124a381613976565b92915050565b6000602082840312156124bb57600080fd5b60006124c9848285016123ec565b91505092915050565b600080604083850312156124e557600080fd5b60006124f3858286016123ec565b9250506020612504858286016123ec565b9150509250929050565b60008060006060848603121561252357600080fd5b6000612531868287016123ec565b9350506020612542868287016123ec565b925050604061255386828701612494565b9150509250925092565b6000806000806080858703121561257357600080fd5b6000612581878288016123ec565b9450506020612592878288016123ec565b93505060406125a387828801612494565b925050606085013567ffffffffffffffff8111156125c057600080fd5b6125cc87828801612440565b91505092959194509250565b600080604083850312156125eb57600080fd5b60006125f9858286016123ec565b925050602061260a85828601612401565b9150509250929050565b6000806040838503121561262757600080fd5b6000612635858286016123ec565b925050602061264685828601612494565b9150509250929050565b60006020828403121561266257600080fd5b600061267084828501612416565b91505092915050565b60006020828403121561268b57600080fd5b60006126998482850161242b565b91505092915050565b600080604083850312156126b557600080fd5b600083013567ffffffffffffffff8111156126cf57600080fd5b6126db8582860161246a565b92505060206126ec85828601612494565b9150509250929050565b60006020828403121561270857600080fd5b600061271684828501612494565b91505092915050565b6000806040838503121561273257600080fd5b600061274085828601612494565b925050602061275185828601612494565b9150509250929050565b61276481613137565b82525050565b61277381613125565b82525050565b61278281613149565b82525050565b600061279382613027565b61279d818561303d565b93506127ad8185602086016131ba565b6127b681613386565b840191505092915050565b60006127cc82613032565b6127d6818561304e565b93506127e68185602086016131ba565b6127ef81613386565b840191505092915050565b600061280582613032565b61280f818561305f565b935061281f8185602086016131ba565b80840191505092915050565b600061283860328361304e565b915061284382613397565b604082019050919050565b600061285b60228361304e565b9150612866826133e6565b604082019050919050565b600061287e60258361304e565b915061288982613435565b604082019050919050565b60006128a1601c8361304e565b91506128ac82613484565b602082019050919050565b60006128c460248361304e565b91506128cf826134ad565b604082019050919050565b60006128e760198361304e565b91506128f2826134fc565b602082019050919050565b600061290a602c8361304e565b915061291582613525565b604082019050919050565b600061292d60388361304e565b915061293882613574565b604082019050919050565b6000612950602a8361304e565b915061295b826135c3565b604082019050919050565b600061297360298361304e565b915061297e82613612565b604082019050919050565b6000612996602e8361304e565b91506129a182613661565b604082019050919050565b60006129b9601f8361304e565b91506129c4826136b0565b602082019050919050565b60006129dc60208361304e565b91506129e7826136d9565b602082019050919050565b60006129ff60318361304e565b9150612a0a82613702565b604082019050919050565b6000612a22602c8361304e565b9150612a2d82613751565b604082019050919050565b6000612a45602f8361304e565b9150612a50826137a0565b604082019050919050565b6000612a68600a8361304e565b9150612a73826137ef565b602082019050919050565b6000612a8b60218361304e565b9150612a9682613818565b604082019050919050565b6000612aae60318361304e565b9150612ab982613867565b604082019050919050565b6000612ad160088361304e565b9150612adc826138b6565b602082019050919050565b6000612af4601b8361304e565b9150612aff826138df565b602082019050919050565b6000612b17600c8361304e565b9150612b2282613908565b602082019050919050565b612b36816131a1565b82525050565b6000612b4882856127fa565b9150612b5482846127fa565b91508190509392505050565b6000602082019050612b75600083018461276a565b92915050565b6000602082019050612b90600083018461275b565b92915050565b6000608082019050612bab600083018761276a565b612bb8602083018661276a565b612bc56040830185612b2d565b8181036060830152612bd78184612788565b905095945050505050565b6000602082019050612bf76000830184612779565b92915050565b60006020820190508181036000830152612c1781846127c1565b905092915050565b60006060820190508181036000830152612c3981866127c1565b9050612c48602083018561276a565b612c556040830184612b2d565b949350505050565b60006020820190508181036000830152612c768161282b565b9050919050565b60006020820190508181036000830152612c968161284e565b9050919050565b60006020820190508181036000830152612cb681612871565b9050919050565b60006020820190508181036000830152612cd681612894565b9050919050565b60006020820190508181036000830152612cf6816128b7565b9050919050565b60006020820190508181036000830152612d16816128da565b9050919050565b60006020820190508181036000830152612d36816128fd565b9050919050565b60006020820190508181036000830152612d5681612920565b9050919050565b60006020820190508181036000830152612d7681612943565b9050919050565b60006020820190508181036000830152612d9681612966565b9050919050565b60006020820190508181036000830152612db681612989565b9050919050565b60006020820190508181036000830152612dd6816129ac565b9050919050565b60006020820190508181036000830152612df6816129cf565b9050919050565b60006020820190508181036000830152612e16816129f2565b9050919050565b60006020820190508181036000830152612e3681612a15565b9050919050565b60006020820190508181036000830152612e5681612a38565b9050919050565b60006020820190508181036000830152612e7681612a5b565b9050919050565b60006020820190508181036000830152612e9681612a7e565b9050919050565b60006020820190508181036000830152612eb681612aa1565b9050919050565b60006020820190508181036000830152612ed681612ac4565b9050919050565b60006020820190508181036000830152612ef681612ae7565b9050919050565b60006020820190508181036000830152612f1681612b0a565b9050919050565b6000602082019050612f326000830184612b2d565b92915050565b600060c082019050612f4d6000830189612b2d565b8181036020830152612f5f81886127c1565b9050612f6e604083018761275b565b612f7b606083018661275b565b612f886080830185612b2d565b612f9560a0830184612779565b979650505050505050565b6000612faa612fbb565b9050612fb6828261321f565b919050565b6000604051905090565b600067ffffffffffffffff821115612fe057612fdf613357565b5b612fe982613386565b9050602081019050919050565b600067ffffffffffffffff82111561301157613010613357565b5b61301a82613386565b9050602081019050919050565b600081519050919050565b600081519050919050565b600082825260208201905092915050565b600082825260208201905092915050565b600081905092915050565b6000613075826131a1565b9150613080836131a1565b9250827fffffffffffffffffffffffffffffffffffffffffffffffffffffffffffffffff038211156130b5576130b46132ca565b5b828201905092915050565b60006130cb826131a1565b91506130d6836131a1565b9250826130e6576130e56132f9565b5b828204905092915050565b60006130fc826131a1565b9150613107836131a1565b92508282101561311a576131196132ca565b5b828203905092915050565b600061313082613181565b9050919050565b600061314282613181565b9050919050565b60008115159050919050565b60007fffffffff0000000000000000000000000000000000000000000000000000000082169050919050565b600073ffffffffffffffffffffffffffffffffffffffff82169050919050565b6000819050919050565b82818337600083830152505050565b60005b838110156131d85780820151818401526020810190506131bd565b838111156131e7576000848401525b50505050565b6000600282049050600182168061320557607f821691505b6020821081141561321957613218613328565b5b50919050565b61322882613386565b810181811067ffffffffffffffff8211171561324757613246613357565b5b80604052505050565b600061325b826131a1565b91507fffffffffffffffffffffffffffffffffffffffffffffffffffffffffffffffff82141561328e5761328d6132ca565b5b600182019050919050565b60006132a4826131a1565b91506132af836131a1565b9250826132bf576132be6132f9565b5b828206905092915050565b7f4e487b7100000000000000000000000000000000000000000000000000000000600052601160045260246000fd5b7f4e487b7100000000000000000000000000000000000000000000000000000000600052601260045260246000fd5b7f4e487b7100000000000000000000000000000000000000000000000000000000600052602260045260246000fd5b7f4e487b7100000000000000000000000000000000000000000000000000000000600052604160045260246000fd5b6000601f19601f8301169050919050565b7f4552433732313a207472616e7366657220746f206e6f6e20455243373231526560008201527f63656976657220696d706c656d656e7465720000000000000000000000000000602082015250565b7f76616c75652073686f756c6420626520657175616c206c697374696e6750726960008201527f6365000000000000000000000000000000000000000000000000000000000000602082015250565b7f4552433732313a207472616e736665722066726f6d20696e636f72726563742060008201527f6f776e6572000000000000000000000000000000000000000000000000000000602082015250565b7f4552433732313a20746f6b656e20616c7265616479206d696e74656400000000600082015250565b7f4552433732313a207472616e7366657220746f20746865207a65726f2061646460008201527f7265737300000000000000000000000000000000000000000000000000000000602082015250565b7f4552433732313a20617070726f766520746f2063616c6c657200000000000000600082015250565b7f4552433732313a206f70657261746f7220717565727920666f72206e6f6e657860008201527f697374656e7420746f6b656e0000000000000000000000000000000000000000602082015250565b7f4552433732313a20617070726f76652063616c6c6572206973206e6f74206f7760008201527f6e6572206e6f7220617070726f76656420666f7220616c6c0000000000000000602082015250565b7f4552433732313a2062616c616e636520717565727920666f7220746865207a6560008201527f726f206164647265737300000000000000000000000000000000000000000000602082015250565b7f4552433732313a206f776e657220717565727920666f72206e6f6e657869737460008201527f656e7420746f6b656e0000000000000000000000000000000000000000000000602082015250565b7f45524337323155524953746f726167653a2055524920736574206f66206e6f6e60008201527f6578697374656e7420746f6b656e000000000000000000000000000000000000602082015250565b7f796f752063616e277420627579206e66742066726f6d20796f757273656c6600600082015250565b7f4552433732313a206d696e7420746f20746865207a65726f2061646472657373600082015250565b7f45524337323155524953746f726167653a2055524920717565727920666f722060008201527f6e6f6e6578697374656e7420746f6b656e000000000000000000000000000000602082015250565b7f4552433732313a20617070726f76656420717565727920666f72206e6f6e657860008201527f697374656e7420746f6b656e0000000000000000000000000000000000000000602082015250565b7f4552433732314d657461646174613a2055524920717565727920666f72206e6f60008201527f6e6578697374656e7420746f6b656e0000000000000000000000000000000000602082015250565b7f6f6e6c79206f776e657200000000000000000000000000000000000000000000600082015250565b7f4552433732313a20617070726f76616c20746f2063757272656e74206f776e6560008201527f7200000000000000000000000000000000000000000000000000000000000000602082015250565b7f4552433732313a207472616e736665722063616c6c6572206973206e6f74206f60008201527f776e6572206e6f7220617070726f766564000000000000000000000000000000602082015250565b7f6e6f7420736f6c64000000000000000000000000000000000000000000000000600082015250565b7f76616c75652073686f756c6420626520657175616c2070726963650000000000600082015250565b7f616c726561647920736f6c640000000000000000000000000000000000000000600082015250565b61393a81613125565b811461394557600080fd5b50565b61395181613149565b811461395c57600080fd5b50565b61396881613155565b811461397357600080fd5b50565b61397f816131a1565b811461398a57600080fd5b5056fea2646970667358221220b80e2a0d09fcb0487c03b9c081912f878b1ac2c07337c1cc3a6d6e0cec6afe4164736f6c63430008040033",
  "linkReferences": {},
  "deployedLinkReferences": {}
}