{
  "_format": "hh-sol-artifact-1",
  "contractName": "MarketPlace",
  "sourceName": "contracts/Market.sol",
  "abi": [
    {
      "inputs": [],
      "stateMutability": "nonpayable",
      "type": "constructor"
    },
    {
      "anonymous": false,
      "inputs": [
        {
          "indexed": true,
          "internalType": "uint256",
          "name": "itemId",
          "type": "uint256"
        },
        {
          "indexed": true,
          "internalType": "address",
          "name": "nftContract",
          "type": "address"
        },
        {
          "indexed": true,
          "internalType": "uint256",
          "name": "tokenId",
          "type": "uint256"
        },
        {
          "indexed": false,
          "internalType": "address",
          "name": "owner",
          "type": "address"
        },
        {
          "indexed": false,
          "internalType": "address",
          "name": "seller",
          "type": "address"
        },
        {
          "indexed": false,
          "internalType": "uint256",
          "name": "price",
          "type": "uint256"
        },
        {
          "indexed": false,
          "internalType": "bool",
          "name": "sold",
          "type": "bool"
        }
      ],
      "name": "MarketItemCreated",
      "type": "event"
    },
    {
      "inputs": [
        {
          "internalType": "address",
          "name": "nftContract",
          "type": "address"
        },
        {
          "internalType": "uint256",
          "name": "tokenId",
          "type": "uint256"
        },
        {
          "internalType": "uint256",
          "name": "price",
          "type": "uint256"
        }
      ],
      "name": "createMarketItem",
      "outputs": [],
      "stateMutability": "payable",
      "type": "function"
    },
    {
      "inputs": [
        {
          "internalType": "uint256",
          "name": "",
          "type": "uint256"
        }
      ],
      "name": "idToMarketItem",
      "outputs": [
        {
          "internalType": "uint256",
          "name": "itemId",
          "type": "uint256"
        },
        {
          "internalType": "address",
          "name": "nftContract",
          "type": "address"
        },
        {
          "internalType": "uint256",
          "name": "tokenId",
          "type": "uint256"
        },
        {
          "internalType": "address payable",
          "name": "owner",
          "type": "address"
        },
        {
          "internalType": "address payable",
          "name": "seller",
          "type": "address"
        },
        {
          "internalType": "uint256",
          "name": "price",
          "type": "uint256"
        },
        {
          "internalType": "bool",
          "name": "sold",
          "type": "bool"
        }
      ],
      "stateMutability": "view",
      "type": "function"
    },
    {
      "inputs": [],
      "name": "listingPrice",
      "outputs": [
        {
          "internalType": "uint256",
          "name": "",
          "type": "uint256"
        }
      ],
      "stateMutability": "view",
      "type": "function"
    },
    {
      "inputs": [],
      "name": "owner",
      "outputs": [
        {
          "internalType": "address payable",
          "name": "",
          "type": "address"
        }
      ],
      "stateMutability": "view",
      "type": "function"
    },
    {
      "inputs": [
        {
          "internalType": "address",
          "name": "nftContract",
          "type": "address"
        },
        {
          "internalType": "uint256",
          "name": "itemId",
          "type": "uint256"
        },
        {
          "internalType": "uint256",
          "name": "price",
          "type": "uint256"
        }
      ],
      "name": "resellMarketItem",
      "outputs": [],
      "stateMutability": "nonpayable",
      "type": "function"
    },
    {
      "inputs": [
        {
          "internalType": "address",
          "name": "nftContract",
          "type": "address"
        },
        {
          "internalType": "uint256",
          "name": "itemId",
          "type": "uint256"
        }
      ],
      "name": "sellMarketItem",
      "outputs": [],
      "stateMutability": "payable",
      "type": "function"
    }
  ],
  "bytecode": "0x60806040526658d15e1762800060035534801561001b57600080fd5b50600160008190555033600260006101000a81548173ffffffffffffffffffffffffffffffffffffffff021916908373ffffffffffffffffffffffffffffffffffffffff160217905550611057806100746000396000f3fe6080604052600436106100555760003560e01c806358eb2df51461005a5780638da5cb5b146100765780638eb6ee4a146100a1578063b0916feb146100ca578063c78f19f9146100e6578063e61a70c014610111575b600080fd5b610074600480360381019061006f9190610aed565b610154565b005b34801561008257600080fd5b5061008b6104b6565b6040516100989190610c3c565b60405180910390f35b3480156100ad57600080fd5b506100c860048036038101906100c39190610aed565b6104dc565b005b6100e460048036038101906100df9190610ab1565b6106b2565b005b3480156100f257600080fd5b506100fb6109ae565b6040516101089190610d53565b60405180910390f35b34801561011d57600080fd5b5061013860048036038101906101339190610b3c565b6109b4565b60405161014b9796959493929190610d6e565b60405180910390f35b6002600054141561019a576040517f08c379a000000000000000000000000000000000000000000000000000000000815260040161019190610cf3565b60405180910390fd5b6002600081905550600081116101e5576040517f08c379a00000000000000000000000000000000000000000000000000000000081526004016101dc90610d13565b60405180910390fd5b6003543414610229576040517f08c379a000000000000000000000000000000000000000000000000000000000815260040161022090610d33565b60405180910390fd5b6102336001610a63565b600061023f6001610a79565b90506040518060e001604052808281526020018573ffffffffffffffffffffffffffffffffffffffff1681526020018481526020013073ffffffffffffffffffffffffffffffffffffffff1681526020013373ffffffffffffffffffffffffffffffffffffffff16815260200183815260200160001515815250600460008381526020019081526020016000206000820151816000015560208201518160010160006101000a81548173ffffffffffffffffffffffffffffffffffffffff021916908373ffffffffffffffffffffffffffffffffffffffff1602179055506040820151816002015560608201518160030160006101000a81548173ffffffffffffffffffffffffffffffffffffffff021916908373ffffffffffffffffffffffffffffffffffffffff16021790555060808201518160040160006101000a81548173ffffffffffffffffffffffffffffffffffffffff021916908373ffffffffffffffffffffffffffffffffffffffff16021790555060a0820151816005015560c08201518160060160006101000a81548160ff0219169083151502179055509050508373ffffffffffffffffffffffffffffffffffffffff166323b872dd3330866040518463ffffffff1660e01b815260040161041f93929190610c9c565b600060405180830381600087803b15801561043957600080fd5b505af115801561044d573d6000803e3d6000fd5b50505050828473ffffffffffffffffffffffffffffffffffffffff16827f045dfa01dcba2b36aba1d3dc4a874f4b0c5d2fbeb8d2c4b34a7d88c8d8f929d130338760006040516104a09493929190610c57565b60405180910390a4506001600081905550505050565b600260009054906101000a900473ffffffffffffffffffffffffffffffffffffffff1681565b3373ffffffffffffffffffffffffffffffffffffffff166004600084815260200190815260200160002060030160009054906101000a900473ffffffffffffffffffffffffffffffffffffffff1673ffffffffffffffffffffffffffffffffffffffff161461054a57600080fd5b60006004600084815260200190815260200160002060060160006101000a81548160ff021916908315150217905550806004600084815260200190815260200160002060050181905550306004600084815260200190815260200160002060030160006101000a81548173ffffffffffffffffffffffffffffffffffffffff021916908373ffffffffffffffffffffffffffffffffffffffff160217905550336004600084815260200190815260200160002060040160006101000a81548173ffffffffffffffffffffffffffffffffffffffff021916908373ffffffffffffffffffffffffffffffffffffffff1602179055508273ffffffffffffffffffffffffffffffffffffffff166323b872dd3330856040518463ffffffff1660e01b815260040161067b93929190610c9c565b600060405180830381600087803b15801561069557600080fd5b505af11580156106a9573d6000803e3d6000fd5b50505050505050565b600260005414156106f8576040517f08c379a00000000000000000000000000000000000000000000000000000000081526004016106ef90610cf3565b60405180910390fd5b600260008190555060006004600083815260200190815260200160002060050154905060006004600084815260200190815260200160002060040160009054906101000a900473ffffffffffffffffffffffffffffffffffffffff169050600354826107649190610dee565b34146107a5576040517f08c379a000000000000000000000000000000000000000000000000000000000815260040161079c90610cd3565b60405180910390fd5b8373ffffffffffffffffffffffffffffffffffffffff166323b872dd3033866040518463ffffffff1660e01b81526004016107e293929190610c9c565b600060405180830381600087803b1580156107fc57600080fd5b505af1158015610810573d6000803e3d6000fd5b505050508073ffffffffffffffffffffffffffffffffffffffff166108fc349081150290604051600060405180830381858888f1935050505015801561085a573d6000803e3d6000fd5b50600260009054906101000a900473ffffffffffffffffffffffffffffffffffffffff1673ffffffffffffffffffffffffffffffffffffffff166108fc6003549081150290604051600060405180830381858888f193505050501580156108c5573d6000803e3d6000fd5b50336004600085815260200190815260200160002060030160006101000a81548173ffffffffffffffffffffffffffffffffffffffff021916908373ffffffffffffffffffffffffffffffffffffffff16021790555060006004600085815260200190815260200160002060040160006101000a81548173ffffffffffffffffffffffffffffffffffffffff021916908373ffffffffffffffffffffffffffffffffffffffff16021790555060016004600085815260200190815260200160002060060160006101000a81548160ff021916908315150217905550505060016000819055505050565b60035481565b60046020528060005260406000206000915090508060000154908060010160009054906101000a900473ffffffffffffffffffffffffffffffffffffffff16908060020154908060030160009054906101000a900473ffffffffffffffffffffffffffffffffffffffff16908060040160009054906101000a900473ffffffffffffffffffffffffffffffffffffffff16908060050154908060060160009054906101000a900460ff16905087565b6001816000016000828254019250508190555050565b600081600001549050919050565b600081359050610a9681610ff3565b92915050565b600081359050610aab8161100a565b92915050565b60008060408385031215610ac457600080fd5b6000610ad285828601610a87565b9250506020610ae385828601610a9c565b9150509250929050565b600080600060608486031215610b0257600080fd5b6000610b1086828701610a87565b9350506020610b2186828701610a9c565b9250506040610b3286828701610a9c565b9150509250925092565b600060208284031215610b4e57600080fd5b6000610b5c84828501610a9c565b91505092915050565b610b6e81610e9e565b82525050565b610b7d81610e56565b82525050565b610b8c81610e44565b82525050565b610b9b81610e68565b82525050565b6000610bae602483610ddd565b9150610bb982610f03565b604082019050919050565b6000610bd1601f83610ddd565b9150610bdc82610f52565b602082019050919050565b6000610bf4601b83610ddd565b9150610bff82610f7b565b602082019050919050565b6000610c17602883610ddd565b9150610c2282610fa4565b604082019050919050565b610c3681610e94565b82525050565b6000602082019050610c516000830184610b74565b92915050565b6000608082019050610c6c6000830187610b65565b610c796020830186610b65565b610c866040830185610c2d565b610c936060830184610b92565b95945050505050565b6000606082019050610cb16000830186610b83565b610cbe6020830185610b83565b610ccb6040830184610c2d565b949350505050565b60006020820190508181036000830152610cec81610ba1565b9050919050565b60006020820190508181036000830152610d0c81610bc4565b9050919050565b60006020820190508181036000830152610d2c81610be7565b9050919050565b60006020820190508181036000830152610d4c81610c0a565b9050919050565b6000602082019050610d686000830184610c2d565b92915050565b600060e082019050610d83600083018a610c2d565b610d906020830189610b83565b610d9d6040830188610c2d565b610daa6060830187610b74565b610db76080830186610b74565b610dc460a0830185610c2d565b610dd160c0830184610b92565b98975050505050505050565b600082825260208201905092915050565b6000610df982610e94565b9150610e0483610e94565b9250827fffffffffffffffffffffffffffffffffffffffffffffffffffffffffffffffff03821115610e3957610e38610ed4565b5b828201905092915050565b6000610e4f82610e74565b9050919050565b6000610e6182610e74565b9050919050565b60008115159050919050565b600073ffffffffffffffffffffffffffffffffffffffff82169050919050565b6000819050919050565b6000610ea982610eb0565b9050919050565b6000610ebb82610ec2565b9050919050565b6000610ecd82610e74565b9050919050565b7f4e487b7100000000000000000000000000000000000000000000000000000000600052601160045260246000fd5b7f76616c75652073686f756c64206265207072696365202b206c697374696e675060008201527f7269636500000000000000000000000000000000000000000000000000000000602082015250565b7f5265656e7472616e637947756172643a207265656e7472616e742063616c6c00600082015250565b7f70726963652073686f756c64206265206d6f7265207468616e20300000000000600082015250565b7f7472616e73666572696e672073686f756c6420626520657175616c206c69737460008201527f696e675072696365000000000000000000000000000000000000000000000000602082015250565b610ffc81610e44565b811461100757600080fd5b50565b61101381610e94565b811461101e57600080fd5b5056fea2646970667358221220e56028c9a7479e6d2d941f21ae2de5eb32aa7c5d9537350008393ae911b8ee4a64736f6c63430008040033",
  "linkReferences": {},
  "deployedLinkReferences": {}
}