{
  "_format": "hh-sol-artifact-1",
  "contractName": "MarketPlace",
  "sourceName": "contracts/Market.sol",
  "abi": [
    {
      "inputs": [],
      "stateMutability": "nonpayable",
      "type": "constructor"
    },
    {
      "anonymous": false,
      "inputs": [
        {
          "indexed": true,
          "internalType": "uint256",
          "name": "itemId",
          "type": "uint256"
        },
        {
          "indexed": true,
          "internalType": "address",
          "name": "nftContract",
          "type": "address"
        },
        {
          "indexed": true,
          "internalType": "uint256",
          "name": "tokenId",
          "type": "uint256"
        },
        {
          "indexed": false,
          "internalType": "address",
          "name": "owner",
          "type": "address"
        },
        {
          "indexed": false,
          "internalType": "address",
          "name": "seller",
          "type": "address"
        },
        {
          "indexed": false,
          "internalType": "uint256",
          "name": "price",
          "type": "uint256"
        },
        {
          "indexed": false,
          "internalType": "bool",
          "name": "sold",
          "type": "bool"
        }
      ],
      "name": "MarketItemCreated",
      "type": "event"
    },
    {
      "inputs": [
        {
          "internalType": "address",
          "name": "nftContract",
          "type": "address"
        },
        {
          "internalType": "uint256",
          "name": "tokenId",
          "type": "uint256"
        },
        {
          "internalType": "uint256",
          "name": "price",
          "type": "uint256"
        }
      ],
      "name": "createMarketItem",
      "outputs": [],
      "stateMutability": "payable",
      "type": "function"
    },
    {
      "inputs": [],
      "name": "listingPrice",
      "outputs": [
        {
          "internalType": "uint256",
          "name": "",
          "type": "uint256"
        }
      ],
      "stateMutability": "view",
      "type": "function"
    },
    {
      "inputs": [
        {
          "internalType": "address",
          "name": "nftContract",
          "type": "address"
        },
        {
          "internalType": "uint256",
          "name": "itemId",
          "type": "uint256"
        },
        {
          "internalType": "uint256",
          "name": "price",
          "type": "uint256"
        }
      ],
      "name": "resellMarketItem",
      "outputs": [],
      "stateMutability": "nonpayable",
      "type": "function"
    },
    {
      "inputs": [
        {
          "internalType": "address",
          "name": "nftContract",
          "type": "address"
        },
        {
          "internalType": "uint256",
          "name": "itemId",
          "type": "uint256"
        }
      ],
      "name": "sellMarketItem",
      "outputs": [],
      "stateMutability": "payable",
      "type": "function"
    }
  ],
  "bytecode": "0x60806040526658d15e1762800060035534801561001b57600080fd5b50600160008190555033600260006101000a81548173ffffffffffffffffffffffffffffffffffffffff021916908373ffffffffffffffffffffffffffffffffffffffff160217905550610bfa806100746000396000f3fe60806040526004361061003f5760003560e01c806358eb2df5146100445780638eb6ee4a14610060578063b0916feb14610089578063c78f19f9146100a5575b600080fd5b61005e600480360381019061005991906108f4565b6100d0565b005b34801561006c57600080fd5b50610087600480360381019061008291906108f4565b6103c8565b005b6100a3600480360381019061009e91906108b8565b61059e565b005b3480156100b157600080fd5b506100ba610864565b6040516100c79190610a3e565b60405180910390f35b60026000541415610116576040517f08c379a000000000000000000000000000000000000000000000000000000000815260040161010d90610a1e565b60405180910390fd5b60026000819055506000811161012b57600080fd5b600354341461013957600080fd5b610143600161086a565b600061014f6001610880565b90506040518060e001604052808281526020018573ffffffffffffffffffffffffffffffffffffffff168152602001848152602001600073ffffffffffffffffffffffffffffffffffffffff1681526020013373ffffffffffffffffffffffffffffffffffffffff16815260200183815260200160001515815250600460008381526020019081526020016000206000820151816000015560208201518160010160006101000a81548173ffffffffffffffffffffffffffffffffffffffff021916908373ffffffffffffffffffffffffffffffffffffffff1602179055506040820151816002015560608201518160030160006101000a81548173ffffffffffffffffffffffffffffffffffffffff021916908373ffffffffffffffffffffffffffffffffffffffff16021790555060808201518160040160006101000a81548173ffffffffffffffffffffffffffffffffffffffff021916908373ffffffffffffffffffffffffffffffffffffffff16021790555060a0820151816005015560c08201518160060160006101000a81548160ff0219169083151502179055509050508373ffffffffffffffffffffffffffffffffffffffff166323b872dd3330866040518463ffffffff1660e01b8152600401610330939291906109e7565b600060405180830381600087803b15801561034a57600080fd5b505af115801561035e573d6000803e3d6000fd5b50505050828473ffffffffffffffffffffffffffffffffffffffff16827f045dfa01dcba2b36aba1d3dc4a874f4b0c5d2fbeb8d2c4b34a7d88c8d8f929d16000338760006040516103b294939291906109a2565b60405180910390a4506001600081905550505050565b3373ffffffffffffffffffffffffffffffffffffffff166004600084815260200190815260200160002060030160009054906101000a900473ffffffffffffffffffffffffffffffffffffffff1673ffffffffffffffffffffffffffffffffffffffff161461043657600080fd5b60006004600084815260200190815260200160002060060160006101000a81548160ff021916908315150217905550806004600084815260200190815260200160002060050181905550306004600084815260200190815260200160002060030160006101000a81548173ffffffffffffffffffffffffffffffffffffffff021916908373ffffffffffffffffffffffffffffffffffffffff160217905550336004600084815260200190815260200160002060040160006101000a81548173ffffffffffffffffffffffffffffffffffffffff021916908373ffffffffffffffffffffffffffffffffffffffff1602179055508273ffffffffffffffffffffffffffffffffffffffff166323b872dd3330856040518463ffffffff1660e01b8152600401610567939291906109e7565b600060405180830381600087803b15801561058157600080fd5b505af1158015610595573d6000803e3d6000fd5b50505050505050565b600260005414156105e4576040517f08c379a00000000000000000000000000000000000000000000000000000000081526004016105db90610a1e565b60405180910390fd5b600260008190555060006004600083815260200190815260200160002060050154905060006004600084815260200190815260200160002060040160009054906101000a900473ffffffffffffffffffffffffffffffffffffffff169050600354826106509190610a6a565b341461065b57600080fd5b8373ffffffffffffffffffffffffffffffffffffffff166323b872dd3033866040518463ffffffff1660e01b8152600401610698939291906109e7565b600060405180830381600087803b1580156106b257600080fd5b505af11580156106c6573d6000803e3d6000fd5b505050508073ffffffffffffffffffffffffffffffffffffffff166108fc349081150290604051600060405180830381858888f19350505050158015610710573d6000803e3d6000fd5b50600260009054906101000a900473ffffffffffffffffffffffffffffffffffffffff1673ffffffffffffffffffffffffffffffffffffffff166108fc6003549081150290604051600060405180830381858888f1935050505015801561077b573d6000803e3d6000fd5b50336004600085815260200190815260200160002060030160006101000a81548173ffffffffffffffffffffffffffffffffffffffff021916908373ffffffffffffffffffffffffffffffffffffffff16021790555060006004600085815260200190815260200160002060040160006101000a81548173ffffffffffffffffffffffffffffffffffffffff021916908373ffffffffffffffffffffffffffffffffffffffff16021790555060016004600085815260200190815260200160002060060160006101000a81548160ff021916908315150217905550505060016000819055505050565b60035481565b6001816000016000828254019250508190555050565b600081600001549050919050565b60008135905061089d81610b96565b92915050565b6000813590506108b281610bad565b92915050565b600080604083850312156108cb57600080fd5b60006108d98582860161088e565b92505060206108ea858286016108a3565b9150509250929050565b60008060006060848603121561090957600080fd5b60006109178682870161088e565b9350506020610928868287016108a3565b9250506040610939868287016108a3565b9150509250925092565b61094c81610b08565b82525050565b61095b81610ac0565b82525050565b61096a81610ad2565b82525050565b600061097d601f83610a59565b915061098882610b6d565b602082019050919050565b61099c81610afe565b82525050565b60006080820190506109b76000830187610943565b6109c46020830186610943565b6109d16040830185610993565b6109de6060830184610961565b95945050505050565b60006060820190506109fc6000830186610952565b610a096020830185610952565b610a166040830184610993565b949350505050565b60006020820190508181036000830152610a3781610970565b9050919050565b6000602082019050610a536000830184610993565b92915050565b600082825260208201905092915050565b6000610a7582610afe565b9150610a8083610afe565b9250827fffffffffffffffffffffffffffffffffffffffffffffffffffffffffffffffff03821115610ab557610ab4610b3e565b5b828201905092915050565b6000610acb82610ade565b9050919050565b60008115159050919050565b600073ffffffffffffffffffffffffffffffffffffffff82169050919050565b6000819050919050565b6000610b1382610b1a565b9050919050565b6000610b2582610b2c565b9050919050565b6000610b3782610ade565b9050919050565b7f4e487b7100000000000000000000000000000000000000000000000000000000600052601160045260246000fd5b7f5265656e7472616e637947756172643a207265656e7472616e742063616c6c00600082015250565b610b9f81610ac0565b8114610baa57600080fd5b50565b610bb681610afe565b8114610bc157600080fd5b5056fea2646970667358221220cb56e9f318e8d3085f7b197965a17f020b41d3d1f4bb45f481750d9d388400d564736f6c63430008040033",
  "linkReferences": {},
  "deployedLinkReferences": {}
}