{
  "_format": "hh-sol-artifact-1",
  "contractName": "MarketPlace",
  "sourceName": "contracts/Market.sol",
  "abi": [
    {
      "anonymous": false,
      "inputs": [
        {
          "indexed": true,
          "internalType": "address",
          "name": "owner",
          "type": "address"
        },
        {
          "indexed": true,
          "internalType": "address",
          "name": "approved",
          "type": "address"
        },
        {
          "indexed": true,
          "internalType": "uint256",
          "name": "tokenId",
          "type": "uint256"
        }
      ],
      "name": "Approval",
      "type": "event"
    },
    {
      "anonymous": false,
      "inputs": [
        {
          "indexed": true,
          "internalType": "address",
          "name": "owner",
          "type": "address"
        },
        {
          "indexed": true,
          "internalType": "address",
          "name": "operator",
          "type": "address"
        },
        {
          "indexed": false,
          "internalType": "bool",
          "name": "approved",
          "type": "bool"
        }
      ],
      "name": "ApprovalForAll",
      "type": "event"
    },
    {
      "anonymous": false,
      "inputs": [
        {
          "indexed": true,
          "internalType": "uint256",
          "name": "itemId",
          "type": "uint256"
        },
        {
          "indexed": false,
          "internalType": "string",
          "name": "tokenURI",
          "type": "string"
        },
        {
          "indexed": false,
          "internalType": "address",
          "name": "owner",
          "type": "address"
        },
        {
          "indexed": true,
          "internalType": "address",
          "name": "seller",
          "type": "address"
        },
        {
          "indexed": false,
          "internalType": "uint256",
          "name": "price",
          "type": "uint256"
        }
      ],
      "name": "MarketItemCreated",
      "type": "event"
    },
    {
      "anonymous": false,
      "inputs": [
        {
          "indexed": true,
          "internalType": "address",
          "name": "from",
          "type": "address"
        },
        {
          "indexed": true,
          "internalType": "address",
          "name": "to",
          "type": "address"
        },
        {
          "indexed": true,
          "internalType": "uint256",
          "name": "tokenId",
          "type": "uint256"
        }
      ],
      "name": "Transfer",
      "type": "event"
    },
    {
      "inputs": [
        {
          "internalType": "address",
          "name": "to",
          "type": "address"
        },
        {
          "internalType": "uint256",
          "name": "tokenId",
          "type": "uint256"
        }
      ],
      "name": "approve",
      "outputs": [],
      "stateMutability": "nonpayable",
      "type": "function"
    },
    {
      "inputs": [
        {
          "internalType": "address",
          "name": "owner",
          "type": "address"
        }
      ],
      "name": "balanceOf",
      "outputs": [
        {
          "internalType": "uint256",
          "name": "",
          "type": "uint256"
        }
      ],
      "stateMutability": "view",
      "type": "function"
    },
    {
      "inputs": [
        {
          "internalType": "uint256",
          "name": "_itemId",
          "type": "uint256"
        }
      ],
      "name": "buyMarketItem",
      "outputs": [],
      "stateMutability": "payable",
      "type": "function"
    },
    {
      "inputs": [
        {
          "internalType": "string",
          "name": "_tokenURI",
          "type": "string"
        },
        {
          "internalType": "uint256",
          "name": "price",
          "type": "uint256"
        }
      ],
      "name": "createToken",
      "outputs": [],
      "stateMutability": "nonpayable",
      "type": "function"
    },
    {
      "inputs": [
        {
          "internalType": "uint256",
          "name": "tokenId",
          "type": "uint256"
        }
      ],
      "name": "getApproved",
      "outputs": [
        {
          "internalType": "address",
          "name": "",
          "type": "address"
        }
      ],
      "stateMutability": "view",
      "type": "function"
    },
    {
      "inputs": [
        {
          "internalType": "uint256",
          "name": "",
          "type": "uint256"
        }
      ],
      "name": "idToMarketItem",
      "outputs": [
        {
          "internalType": "uint256",
          "name": "itemId",
          "type": "uint256"
        },
        {
          "internalType": "string",
          "name": "tokenURI",
          "type": "string"
        },
        {
          "internalType": "address payable",
          "name": "owner",
          "type": "address"
        },
        {
          "internalType": "address payable",
          "name": "seller",
          "type": "address"
        },
        {
          "internalType": "uint256",
          "name": "price",
          "type": "uint256"
        },
        {
          "internalType": "bool",
          "name": "sold",
          "type": "bool"
        }
      ],
      "stateMutability": "view",
      "type": "function"
    },
    {
      "inputs": [],
      "name": "initialize",
      "outputs": [],
      "stateMutability": "nonpayable",
      "type": "function"
    },
    {
      "inputs": [
        {
          "internalType": "address",
          "name": "owner",
          "type": "address"
        },
        {
          "internalType": "address",
          "name": "operator",
          "type": "address"
        }
      ],
      "name": "isApprovedForAll",
      "outputs": [
        {
          "internalType": "bool",
          "name": "",
          "type": "bool"
        }
      ],
      "stateMutability": "view",
      "type": "function"
    },
    {
      "inputs": [],
      "name": "listingPrice",
      "outputs": [
        {
          "internalType": "uint256",
          "name": "",
          "type": "uint256"
        }
      ],
      "stateMutability": "view",
      "type": "function"
    },
    {
      "inputs": [],
      "name": "name",
      "outputs": [
        {
          "internalType": "string",
          "name": "",
          "type": "string"
        }
      ],
      "stateMutability": "view",
      "type": "function"
    },
    {
      "inputs": [],
      "name": "owner",
      "outputs": [
        {
          "internalType": "address payable",
          "name": "",
          "type": "address"
        }
      ],
      "stateMutability": "view",
      "type": "function"
    },
    {
      "inputs": [
        {
          "internalType": "uint256",
          "name": "tokenId",
          "type": "uint256"
        }
      ],
      "name": "ownerOf",
      "outputs": [
        {
          "internalType": "address",
          "name": "",
          "type": "address"
        }
      ],
      "stateMutability": "view",
      "type": "function"
    },
    {
      "inputs": [
        {
          "internalType": "uint256",
          "name": "_itemId",
          "type": "uint256"
        },
        {
          "internalType": "uint256",
          "name": "price",
          "type": "uint256"
        }
      ],
      "name": "resellMarketItem",
      "outputs": [],
      "stateMutability": "payable",
      "type": "function"
    },
    {
      "inputs": [
        {
          "internalType": "address",
          "name": "from",
          "type": "address"
        },
        {
          "internalType": "address",
          "name": "to",
          "type": "address"
        },
        {
          "internalType": "uint256",
          "name": "tokenId",
          "type": "uint256"
        }
      ],
      "name": "safeTransferFrom",
      "outputs": [],
      "stateMutability": "nonpayable",
      "type": "function"
    },
    {
      "inputs": [
        {
          "internalType": "address",
          "name": "from",
          "type": "address"
        },
        {
          "internalType": "address",
          "name": "to",
          "type": "address"
        },
        {
          "internalType": "uint256",
          "name": "tokenId",
          "type": "uint256"
        },
        {
          "internalType": "bytes",
          "name": "_data",
          "type": "bytes"
        }
      ],
      "name": "safeTransferFrom",
      "outputs": [],
      "stateMutability": "nonpayable",
      "type": "function"
    },
    {
      "inputs": [
        {
          "internalType": "address",
          "name": "operator",
          "type": "address"
        },
        {
          "internalType": "bool",
          "name": "approved",
          "type": "bool"
        }
      ],
      "name": "setApprovalForAll",
      "outputs": [],
      "stateMutability": "nonpayable",
      "type": "function"
    },
    {
      "inputs": [
        {
          "internalType": "bytes4",
          "name": "interfaceId",
          "type": "bytes4"
        }
      ],
      "name": "supportsInterface",
      "outputs": [
        {
          "internalType": "bool",
          "name": "",
          "type": "bool"
        }
      ],
      "stateMutability": "view",
      "type": "function"
    },
    {
      "inputs": [],
      "name": "symbol",
      "outputs": [
        {
          "internalType": "string",
          "name": "",
          "type": "string"
        }
      ],
      "stateMutability": "view",
      "type": "function"
    },
    {
      "inputs": [
        {
          "internalType": "uint256",
          "name": "tokenId",
          "type": "uint256"
        }
      ],
      "name": "tokenURI",
      "outputs": [
        {
          "internalType": "string",
          "name": "",
          "type": "string"
        }
      ],
      "stateMutability": "view",
      "type": "function"
    },
    {
      "inputs": [
        {
          "internalType": "address",
          "name": "from",
          "type": "address"
        },
        {
          "internalType": "address",
          "name": "to",
          "type": "address"
        },
        {
          "internalType": "uint256",
          "name": "tokenId",
          "type": "uint256"
        }
      ],
      "name": "transferFrom",
      "outputs": [],
      "stateMutability": "nonpayable",
      "type": "function"
    }
  ],
  "bytecode": "0x608060405234801561001057600080fd5b50612042806100206000396000f3fe60806040526004361061011f5760003560e01c806372b3b620116100a0578063b88d4fde11610064578063b88d4fde14610313578063c78f19f914610333578063c87b56dd14610349578063e61a70c014610369578063e985e9c51461039b57600080fd5b806372b3b620146102895780638129fc1c146102a95780638da5cb5b146102be57806395d89b41146102de578063a22cb465146102f357600080fd5b8063351901c3116100e7578063351901c3146101f557806342842e0e146102085780636352211e146102285780636b52d8321461024857806370a082311461025b57600080fd5b806301ffc9a71461012457806306fdde0314610159578063081812fc1461017b578063095ea7b3146101b357806323b872dd146101d5575b600080fd5b34801561013057600080fd5b5061014461013f366004611c04565b6103e4565b60405190151581526020015b60405180910390f35b34801561016557600080fd5b5061016e610436565b6040516101509190611d63565b34801561018757600080fd5b5061019b610196366004611c92565b6104c8565b6040516001600160a01b039091168152602001610150565b3480156101bf57600080fd5b506101d36101ce366004611bdb565b610555565b005b3480156101e157600080fd5b506101d36101f0366004611aed565b61066b565b6101d3610203366004611c92565b61069c565b34801561021457600080fd5b506101d3610223366004611aed565b610883565b34801561023457600080fd5b5061019b610243366004611c92565b61089e565b6101d3610256366004611caa565b610915565b34801561026757600080fd5b5061027b610276366004611aa1565b610a9f565b604051908152602001610150565b34801561029557600080fd5b506101d36102a4366004611c3c565b610b26565b3480156102b557600080fd5b506101d3610b5f565b3480156102ca57600080fd5b5060ca5461019b906001600160a01b031681565b3480156102ea57600080fd5b5061016e610c76565b3480156102ff57600080fd5b506101d361030e366004611ba1565b610c85565b34801561031f57600080fd5b506101d361032e366004611b28565b610c90565b34801561033f57600080fd5b5061027b60cb5481565b34801561035557600080fd5b5061016e610364366004611c92565b610cc8565b34801561037557600080fd5b50610389610384366004611c92565b610e3f565b60405161015096959493929190611e92565b3480156103a757600080fd5b506101446103b6366004611abb565b6001600160a01b039182166000908152606a6020908152604080832093909416825291909152205460ff1690565b60006001600160e01b031982166380ac58cd60e01b148061041557506001600160e01b03198216635b5e139f60e01b145b8061043057506301ffc9a760e01b6001600160e01b03198316145b92915050565b60606065805461044590611f4a565b80601f016020809104026020016040519081016040528092919081815260200182805461047190611f4a565b80156104be5780601f10610493576101008083540402835291602001916104be565b820191906000526020600020905b8154815290600101906020018083116104a157829003601f168201915b5050505050905090565b60006104d382610f0e565b6105395760405162461bcd60e51b815260206004820152602c60248201527f4552433732313a20617070726f76656420717565727920666f72206e6f6e657860448201526b34b9ba32b73a103a37b5b2b760a11b60648201526084015b60405180910390fd5b506000908152606960205260409020546001600160a01b031690565b60006105608261089e565b9050806001600160a01b0316836001600160a01b031614156105ce5760405162461bcd60e51b815260206004820152602160248201527f4552433732313a20617070726f76616c20746f2063757272656e74206f776e656044820152603960f91b6064820152608401610530565b336001600160a01b03821614806105ea57506105ea81336103b6565b61065c5760405162461bcd60e51b815260206004820152603860248201527f4552433732313a20617070726f76652063616c6c6572206973206e6f74206f7760448201527f6e6572206e6f7220617070726f76656420666f7220616c6c00000000000000006064820152608401610530565b6106668383610f2b565b505050565b6106753382610f99565b6106915760405162461bcd60e51b815260040161053090611df6565b61066683838361107f565b600081815260cc6020526040902060cb5460048201546106bc9190611edb565b341461070a5760405162461bcd60e51b815260206004820152601b60248201527f76616c75652073686f756c6420626520657175616c20707269636500000000006044820152606401610530565b60038101546001600160a01b03163314156107675760405162461bcd60e51b815260206004820152601f60248201527f796f752063616e277420627579206e66742066726f6d20796f757273656c66006044820152606401610530565b600581015460ff16156107ab5760405162461bcd60e51b815260206004820152600c60248201526b185b1c9958591e481cdbdb1960a21b6044820152606401610530565b600381015460cb546001600160a01b03909116906108fc906107cd9034611f07565b6040518115909202916000818181858888f193505050501580156107f5573d6000803e3d6000fd5b5060ca5460048201546001600160a01b03909116906108fc906108189034611f07565b6040518115909202916000818181858888f19350505050158015610840573d6000803e3d6000fd5b50600281018054336001600160a01b03199182168117909255600383018054909116905560058201805460ff1916600117905561087f9030908461107f565b5050565b61066683838360405180602001604052806000815250610c90565b6000818152606760205260408120546001600160a01b0316806104305760405162461bcd60e51b815260206004820152602960248201527f4552433732313a206f776e657220717565727920666f72206e6f6e657869737460448201526832b73a103a37b5b2b760b91b6064820152608401610530565b600082815260cc6020526040902060cb54341461097f5760405162461bcd60e51b815260206004820152602260248201527f76616c75652073686f756c6420626520657175616c206c697374696e67507269604482015261636560f01b6064820152608401610530565b60028101546001600160a01b031633146109c85760405162461bcd60e51b815260206004820152600a60248201526937b7363c9037bbb732b960b11b6044820152606401610530565b60028101546001600160a01b03163014156109e257600080fd5b600581015460ff16610a215760405162461bcd60e51b81526020600482015260086024820152671b9bdd081cdbdb1960c21b6044820152606401610530565b60038101546040516001600160a01b03909116903480156108fc02916000818181858888f19350505050158015610a5c573d6000803e3d6000fd5b50600281018054306001600160a01b031991821681179092556003830180543392168217905560058301805460ff1916905560048301849055610666918561107f565b60006001600160a01b038216610b0a5760405162461bcd60e51b815260206004820152602a60248201527f4552433732313a2062616c616e636520717565727920666f7220746865207a65604482015269726f206164647265737360b01b6064820152608401610530565b506001600160a01b031660009081526068602052604090205490565b610b3460c980546001019055565b6000610b3f60c95490565b9050610b4b338261121b565b610b55818461134e565b61066683836113d9565b600054610100900460ff16610b7a5760005460ff1615610b7e565b303b155b610be15760405162461bcd60e51b815260206004820152602e60248201527f496e697469616c697a61626c653a20636f6e747261637420697320616c72656160448201526d191e481a5b9a5d1a585b1a5e995960921b6064820152608401610530565b600054610100900460ff16158015610c03576000805461ffff19166101011790555b60ca80546001600160a01b0319163317905566470de4df82000060cb55604080518082018252600781526613595d1853919560ca1b6020808301919091528251808401909352600383526213519560ea1b90830152610c61916114fe565b8015610c73576000805461ff00191690555b50565b60606066805461044590611f4a565b61087f33838361152f565b610c9a3383610f99565b610cb65760405162461bcd60e51b815260040161053090611df6565b610cc2848484846115f6565b50505050565b6060610cd382610f0e565b610d395760405162461bcd60e51b815260206004820152603160248201527f45524337323155524953746f726167653a2055524920717565727920666f72206044820152703737b732bc34b9ba32b73a103a37b5b2b760791b6064820152608401610530565b60008281526097602052604081208054610d5290611f4a565b80601f0160208091040260200160405190810160405280929190818152602001828054610d7e90611f4a565b8015610dcb5780601f10610da057610100808354040283529160200191610dcb565b820191906000526020600020905b815481529060010190602001808311610dae57829003601f168201915b505050505090506000610de960408051602081019091526000815290565b9050805160001415610dfc575092915050565b815115610e2e578082604051602001610e16929190611cf7565b60405160208183030381529060405292505050919050565b610e3784611629565b949350505050565b60cc6020526000908152604090208054600182018054919291610e6190611f4a565b80601f0160208091040260200160405190810160405280929190818152602001828054610e8d90611f4a565b8015610eda5780601f10610eaf57610100808354040283529160200191610eda565b820191906000526020600020905b815481529060010190602001808311610ebd57829003601f168201915b5050505060028301546003840154600485015460059095015493946001600160a01b03928316949290911692509060ff1686565b6000908152606760205260409020546001600160a01b0316151590565b600081815260696020526040902080546001600160a01b0319166001600160a01b0384169081179091558190610f608261089e565b6001600160a01b03167f8c5be1e5ebec7d5bd14f71427d1e84f3dd0314c0f7b2291e5b200ac8c7c3b92560405160405180910390a45050565b6000610fa482610f0e565b6110055760405162461bcd60e51b815260206004820152602c60248201527f4552433732313a206f70657261746f7220717565727920666f72206e6f6e657860448201526b34b9ba32b73a103a37b5b2b760a11b6064820152608401610530565b60006110108361089e565b9050806001600160a01b0316846001600160a01b0316148061104b5750836001600160a01b0316611040846104c8565b6001600160a01b0316145b80610e3757506001600160a01b038082166000908152606a602090815260408083209388168352929052205460ff16610e37565b826001600160a01b03166110928261089e565b6001600160a01b0316146110f65760405162461bcd60e51b815260206004820152602560248201527f4552433732313a207472616e736665722066726f6d20696e636f72726563742060448201526437bbb732b960d91b6064820152608401610530565b6001600160a01b0382166111585760405162461bcd60e51b8152602060048201526024808201527f4552433732313a207472616e7366657220746f20746865207a65726f206164646044820152637265737360e01b6064820152608401610530565b611163600082610f2b565b6001600160a01b038316600090815260686020526040812080546001929061118c908490611f07565b90915550506001600160a01b03821660009081526068602052604081208054600192906111ba908490611edb565b909155505060008181526067602052604080822080546001600160a01b0319166001600160a01b0386811691821790925591518493918716917fddf252ad1be2c89b69c2b068fc378daa952ba7f163c4a11628f55a4df523b3ef91a4505050565b6001600160a01b0382166112715760405162461bcd60e51b815260206004820181905260248201527f4552433732313a206d696e7420746f20746865207a65726f20616464726573736044820152606401610530565b61127a81610f0e565b156112c75760405162461bcd60e51b815260206004820152601c60248201527f4552433732313a20746f6b656e20616c7265616479206d696e746564000000006044820152606401610530565b6001600160a01b03821660009081526068602052604081208054600192906112f0908490611edb565b909155505060008181526067602052604080822080546001600160a01b0319166001600160a01b03861690811790915590518392907fddf252ad1be2c89b69c2b068fc378daa952ba7f163c4a11628f55a4df523b3ef908290a45050565b61135782610f0e565b6113ba5760405162461bcd60e51b815260206004820152602e60248201527f45524337323155524953746f726167653a2055524920736574206f66206e6f6e60448201526d32bc34b9ba32b73a103a37b5b2b760911b6064820152608401610530565b6000828152609760209081526040909120825161066692840190611976565b60006113e460c95490565b6040805160c0810182528281526020808201878152308385015233606084015260808301879052600060a0840181905285815260cc8352939093208251815592518051949550919361143c9260018501920190611976565b5060408201516002820180546001600160a01b039283166001600160a01b03199182161790915560608401516003840180549190931691161790556080820151600482015560a0909101516005909101805491151560ff199092169190911790556114a8306001610c85565b6114b333308361066b565b336001600160a01b0316817f8a874d278ef657dae7538aa2aa10e3257e15a7539193206ec140648cb19753348530866040516114f193929190611d76565b60405180910390a3505050565b600054610100900460ff166115255760405162461bcd60e51b815260040161053090611e47565b61087f8282611701565b816001600160a01b0316836001600160a01b031614156115915760405162461bcd60e51b815260206004820152601960248201527f4552433732313a20617070726f766520746f2063616c6c6572000000000000006044820152606401610530565b6001600160a01b038381166000818152606a6020908152604080832094871680845294825291829020805460ff191686151590811790915591519182527f17307eab39ab6107e8899845ad3d59bd9653f200f220920489ca2b5937696c3191016114f1565b61160184848461107f565b61160d8484848461174f565b610cc25760405162461bcd60e51b815260040161053090611da4565b606061163482610f0e565b6116985760405162461bcd60e51b815260206004820152602f60248201527f4552433732314d657461646174613a2055524920717565727920666f72206e6f60448201526e3732bc34b9ba32b73a103a37b5b2b760891b6064820152608401610530565b60006116af60408051602081019091526000815290565b905060008151116116cf57604051806020016040528060008152506116fa565b806116d98461185c565b6040516020016116ea929190611cf7565b6040516020818303038152906040525b9392505050565b600054610100900460ff166117285760405162461bcd60e51b815260040161053090611e47565b815161173b906065906020850190611976565b508051610666906066906020840190611976565b60006001600160a01b0384163b1561185157604051630a85bd0160e11b81526001600160a01b0385169063150b7a0290611793903390899088908890600401611d26565b602060405180830381600087803b1580156117ad57600080fd5b505af19250505080156117dd575060408051601f3d908101601f191682019092526117da91810190611c20565b60015b611837573d80801561180b576040519150601f19603f3d011682016040523d82523d6000602084013e611810565b606091505b50805161182f5760405162461bcd60e51b815260040161053090611da4565b805181602001fd5b6001600160e01b031916630a85bd0160e11b149050610e37565b506001949350505050565b6060816118805750506040805180820190915260018152600360fc1b602082015290565b8160005b81156118aa578061189481611f85565b91506118a39050600a83611ef3565b9150611884565b60008167ffffffffffffffff8111156118d357634e487b7160e01b600052604160045260246000fd5b6040519080825280601f01601f1916602001820160405280156118fd576020820181803683370190505b5090505b8415610e3757611912600183611f07565b915061191f600a86611fa0565b61192a906030611edb565b60f81b81838151811061194d57634e487b7160e01b600052603260045260246000fd5b60200101906001600160f81b031916908160001a90535061196f600a86611ef3565b9450611901565b82805461198290611f4a565b90600052602060002090601f0160209004810192826119a457600085556119ea565b82601f106119bd57805160ff19168380011785556119ea565b828001600101855582156119ea579182015b828111156119ea5782518255916020019190600101906119cf565b506119f69291506119fa565b5090565b5b808211156119f657600081556001016119fb565b600067ffffffffffffffff80841115611a2a57611a2a611fe0565b604051601f8501601f19908116603f01168101908282118183101715611a5257611a52611fe0565b81604052809350858152868686011115611a6b57600080fd5b858560208301376000602087830101525050509392505050565b80356001600160a01b0381168114611a9c57600080fd5b919050565b600060208284031215611ab2578081fd5b6116fa82611a85565b60008060408385031215611acd578081fd5b611ad683611a85565b9150611ae460208401611a85565b90509250929050565b600080600060608486031215611b01578081fd5b611b0a84611a85565b9250611b1860208501611a85565b9150604084013590509250925092565b60008060008060808587031215611b3d578081fd5b611b4685611a85565b9350611b5460208601611a85565b925060408501359150606085013567ffffffffffffffff811115611b76578182fd5b8501601f81018713611b86578182fd5b611b9587823560208401611a0f565b91505092959194509250565b60008060408385031215611bb3578182fd5b611bbc83611a85565b915060208301358015158114611bd0578182fd5b809150509250929050565b60008060408385031215611bed578182fd5b611bf683611a85565b946020939093013593505050565b600060208284031215611c15578081fd5b81356116fa81611ff6565b600060208284031215611c31578081fd5b81516116fa81611ff6565b60008060408385031215611c4e578182fd5b823567ffffffffffffffff811115611c64578283fd5b8301601f81018513611c74578283fd5b611c8385823560208401611a0f565b95602094909401359450505050565b600060208284031215611ca3578081fd5b5035919050565b60008060408385031215611cbc578182fd5b50508035926020909101359150565b60008151808452611ce3816020860160208601611f1e565b601f01601f19169290920160200192915050565b60008351611d09818460208801611f1e565b835190830190611d1d818360208801611f1e565b01949350505050565b6001600160a01b0385811682528416602082015260408101839052608060608201819052600090611d5990830184611ccb565b9695505050505050565b6020815260006116fa6020830184611ccb565b606081526000611d896060830186611ccb565b6001600160a01b039490941660208301525060400152919050565b60208082526032908201527f4552433732313a207472616e7366657220746f206e6f6e20455243373231526560408201527131b2b4bb32b91034b6b83632b6b2b73a32b960711b606082015260800190565b60208082526031908201527f4552433732313a207472616e736665722063616c6c6572206973206e6f74206f6040820152701ddb995c881b9bdc88185c1c1c9bdd9959607a1b606082015260800190565b6020808252602b908201527f496e697469616c697a61626c653a20636f6e7472616374206973206e6f74206960408201526a6e697469616c697a696e6760a81b606082015260800190565b86815260c060208201526000611eab60c0830188611ccb565b6001600160a01b0396871660408401529490951660608201526080810192909252151560a0909101529392505050565b60008219821115611eee57611eee611fb4565b500190565b600082611f0257611f02611fca565b500490565b600082821015611f1957611f19611fb4565b500390565b60005b83811015611f39578181015183820152602001611f21565b83811115610cc25750506000910152565b600181811c90821680611f5e57607f821691505b60208210811415611f7f57634e487b7160e01b600052602260045260246000fd5b50919050565b6000600019821415611f9957611f99611fb4565b5060010190565b600082611faf57611faf611fca565b500690565b634e487b7160e01b600052601160045260246000fd5b634e487b7160e01b600052601260045260246000fd5b634e487b7160e01b600052604160045260246000fd5b6001600160e01b031981168114610c7357600080fdfea2646970667358221220184ca81dc85f333a13db0435fcfd535f02c5f4c9e4cd83739e2991c2f50df52864736f6c63430008040033",
  "linkReferences": {},
  "deployedLinkReferences": {}
}